{
  "contractName": "Chore",
  "abi": [
    {
      "constant": true,
      "inputs": [
        {
          "internalType": "uint256",
          "name": "",
          "type": "uint256"
        }
      ],
      "name": "kid",
      "outputs": [
        {
          "internalType": "address",
          "name": "",
          "type": "address"
        }
      ],
      "payable": false,
      "stateMutability": "view",
      "type": "function"
    },
    {
      "constant": false,
      "inputs": [
        {
          "internalType": "uint256",
          "name": "choreID",
          "type": "uint256"
        }
      ],
      "name": "task",
      "outputs": [
        {
          "internalType": "uint256",
          "name": "",
          "type": "uint256"
        }
      ],
      "payable": false,
      "stateMutability": "nonpayable",
      "type": "function"
    },
    {
      "constant": true,
      "inputs": [],
      "name": "getKids",
      "outputs": [
        {
          "internalType": "address[16]",
          "name": "",
          "type": "address[16]"
        }
      ],
      "payable": false,
      "stateMutability": "view",
      "type": "function"
    }
  ],
  "bytecode": "0x608060405234801561001057600080fd5b506102b9806100206000396000f3fe608060405234801561001057600080fd5b50600436106100415760003560e01c806317751a21146100465780636c3087ff14610088578063e9b9c4d3146100f6575b600080fd5b6100726004803603602081101561005c57600080fd5b810190808035906020019092919050505061013c565b6040518082815260200191505060405180910390f35b6100b46004803603602081101561009e57600080fd5b81019080803590602001909291905050506101ad565b604051808273ffffffffffffffffffffffffffffffffffffffff1673ffffffffffffffffffffffffffffffffffffffff16815260200191505060405180910390f35b6100fe6101e0565b6040518082601060200280838360005b8381101561012957808201518184015260208101905061010e565b5050505090500191505060405180910390f35b600080821015801561014f5750600f8211155b61015857600080fd5b336000836010811061016657fe5b0160006101000a81548173ffffffffffffffffffffffffffffffffffffffff021916908373ffffffffffffffffffffffffffffffffffffffff160217905550819050919050565b600081601081106101ba57fe5b016000915054906101000a900473ffffffffffffffffffffffffffffffffffffffff1681565b6101e8610261565b6000601080602002604051908101604052809291908260108015610257576020028201915b8160009054906101000a900473ffffffffffffffffffffffffffffffffffffffff1673ffffffffffffffffffffffffffffffffffffffff168152602001906001019080831161020d575b5050505050905090565b60405180610200016040528060109060208202803883398082019150509050509056fea265627a7a72315820457c114d976a6fa0f4de30dc724074def59e1f0d7dd43e335eed7160e709589764736f6c63430005100032",
  "source": "pragma solidity ^0.5.0;\r\n\r\ncontract Chore {\r\n\r\n    address[16] public kid;\r\n\r\n    // Assigning a chore\r\n    function task(uint choreID) public returns (uint) {\r\n        require(choreID >= 0 && choreID <= 15);\r\n\r\n    kid[choreID] = msg.sender;\r\n\r\n  return choreID;\r\n}\r\n\r\n    // Retrieving the adopters\r\n    function getKids() public view returns (address[16] memory) {\r\n    return kid;\r\n    }\r\n\r\n}",
  "sourcePath": "C:/Users/14694/kidearn_testing/contracts/Tasks.sol",
  "compiler": {
    "name": "solc",
    "version": "0.5.16+commit.9c3226ce.Emscripten.clang"
  },
  "schemaVersion": "3.3.3",
  "updatedAt": "2021-01-18T20:23:43.205Z",
  "networkType": "ethereum",
  "devdoc": {
    "methods": {}
  },
  "userdoc": {
    "methods": {}
  }
}